{
	"_format": "hh-sol-artifact-1",
	"contractName": "CornucopiaContract",
	"sourceName": "contracts/CornucopiaContract.sol",
	"abi": [
		{
			"inputs": [],
			"stateMutability": "nonpayable",
			"type": "constructor"
		},
		{
			"inputs": [],
			"name": "SecurityUpdate",
			"outputs": [],
			"stateMutability": "payable",
			"type": "function"
		},
		{
			"inputs": [],
			"name": "getBalance",
			"outputs": [
				{
					"internalType": "uint256",
					"name": "",
					"type": "uint256"
				}
			],
			"stateMutability": "view",
			"type": "function"
		},
		{
			"inputs": [],
			"name": "getOwner",
			"outputs": [
				{
					"internalType": "address",
					"name": "",
					"type": "address"
				}
			],
			"stateMutability": "view",
			"type": "function"
		},
		{
			"inputs": [],
			"name": "withdraw",
			"outputs": [],
			"stateMutability": "nonpayable",
			"type": "function"
		}
	],
	"bytecode": "0x608060405234801561001057600080fd5b50336000806101000a81548173ffffffffffffffffffffffffffffffffffffffff021916908373ffffffffffffffffffffffffffffffffffffffff160217905550610308806100606000396000f3fe60806040526004361061003f5760003560e01c806312065fe0146100445780633ccfd60b1461006f5780635fba79f514610086578063893d20e814610090575b600080fd5b34801561005057600080fd5b506100596100bb565b60405161006691906101de565b60405180910390f35b34801561007b57600080fd5b506100846100c3565b005b61008e61019a565b005b34801561009c57600080fd5b506100a561019c565b6040516100b2919061023a565b60405180910390f35b600047905090565b3373ffffffffffffffffffffffffffffffffffffffff1660008054906101000a900473ffffffffffffffffffffffffffffffffffffffff1673ffffffffffffffffffffffffffffffffffffffff1614610151576040517f08c379a0000000000000000000000000000000000000000000000000000000008152600401610148906102b2565b60405180910390fd5b3373ffffffffffffffffffffffffffffffffffffffff166108fc479081150290604051600060405180830381858888f19350505050158015610197573d6000803e3d6000fd5b50565b565b60008060009054906101000a900473ffffffffffffffffffffffffffffffffffffffff16905090565b6000819050919050565b6101d8816101c5565b82525050565b60006020820190506101f360008301846101cf565b92915050565b600073ffffffffffffffffffffffffffffffffffffffff82169050919050565b6000610224826101f9565b9050919050565b61023481610219565b82525050565b600060208201905061024f600083018461022b565b92915050565b600082825260208201905092915050565b7f6f776e6572206572726f72000000000000000000000000000000000000000000600082015250565b600061029c600b83610255565b91506102a782610266565b602082019050919050565b600060208201905081810360008301526102cb8161028f565b905091905056fea2646970667358221220c6c621b16bed46ce665edfb67df64246644186d4f831b0757bd6d32f608cea5564736f6c63430008110033",
	"linkReferences": {},
	"deployedLinkReferences": {}
}