{
  "_format": "hh-sol-artifact-1",
  "contractName": "CornucopiaContract",
  "sourceName": "contracts/CornucopiaContract.sol",
  "abi": [
    {
      "inputs": [],
      "stateMutability": "nonpayable",
      "type": "constructor"
    },
    {
      "stateMutability": "payable",
      "type": "fallback"
    },
    {
      "inputs": [],
      "name": "getBalance",
      "outputs": [
        {
          "internalType": "uint256",
          "name": "",
          "type": "uint256"
        }
      ],
      "stateMutability": "view",
      "type": "function"
    },
    {
      "inputs": [],
      "name": "getOwner",
      "outputs": [
        {
          "internalType": "address",
          "name": "",
          "type": "address"
        }
      ],
      "stateMutability": "view",
      "type": "function"
    },
    {
      "inputs": [],
      "name": "withdraw",
      "outputs": [],
      "stateMutability": "nonpayable",
      "type": "function"
    },
    {
      "stateMutability": "payable",
      "type": "receive"
    }
  ],
  "bytecode": "0x608060405234801561001057600080fd5b50336000806101000a81548173ffffffffffffffffffffffffffffffffffffffff021916908373ffffffffffffffffffffffffffffffffffffffff1602179055506102f9806100606000396000f3fe6080604052600436106100385760003560e01c806312065fe0146100415780633ccfd60b1461006c578063893d20e8146100835761003f565b3661003f57005b005b34801561004d57600080fd5b506100566100ae565b60405161006391906101cf565b60405180910390f35b34801561007857600080fd5b506100816100b6565b005b34801561008f57600080fd5b5061009861018d565b6040516100a5919061022b565b60405180910390f35b600047905090565b3373ffffffffffffffffffffffffffffffffffffffff1660008054906101000a900473ffffffffffffffffffffffffffffffffffffffff1673ffffffffffffffffffffffffffffffffffffffff1614610144576040517f08c379a000000000000000000000000000000000000000000000000000000000815260040161013b906102a3565b60405180910390fd5b3373ffffffffffffffffffffffffffffffffffffffff166108fc479081150290604051600060405180830381858888f1935050505015801561018a573d6000803e3d6000fd5b50565b60008060009054906101000a900473ffffffffffffffffffffffffffffffffffffffff16905090565b6000819050919050565b6101c9816101b6565b82525050565b60006020820190506101e460008301846101c0565b92915050565b600073ffffffffffffffffffffffffffffffffffffffff82169050919050565b6000610215826101ea565b9050919050565b6102258161020a565b82525050565b6000602082019050610240600083018461021c565b92915050565b600082825260208201905092915050565b7f6f776e6572206572726f72000000000000000000000000000000000000000000600082015250565b600061028d600b83610246565b915061029882610257565b602082019050919050565b600060208201905081810360008301526102bc81610280565b905091905056fea2646970667358221220296356f6aaa96628dabfa54ff0c20f5b9905bb8e6264a664964338b36880e63364736f6c63430008110033",
  "linkReferences": {},
  "deployedLinkReferences": {}
}