{
  "_format": "hh-sol-artifact-1",
  "contractName": "TicketContract",
  "sourceName": "contracts/TicketContract.sol",
  "abi": [
    {
      "inputs": [],
      "stateMutability": "nonpayable",
      "type": "constructor"
    },
    {
      "anonymous": false,
      "inputs": [
        {
          "indexed": false,
          "internalType": "uint8",
          "name": "rnd",
          "type": "uint8"
        },
        {
          "indexed": false,
          "internalType": "uint256",
          "name": "balance",
          "type": "uint256"
        },
        {
          "indexed": false,
          "internalType": "uint256",
          "name": "amount",
          "type": "uint256"
        }
      ],
      "name": "Log",
      "type": "event"
    },
    {
      "inputs": [],
      "name": "getBalance",
      "outputs": [
        {
          "internalType": "uint256",
          "name": "",
          "type": "uint256"
        }
      ],
      "stateMutability": "view",
      "type": "function"
    },
    {
      "inputs": [],
      "name": "getDiv",
      "outputs": [
        {
          "internalType": "uint8",
          "name": "",
          "type": "uint8"
        }
      ],
      "stateMutability": "view",
      "type": "function"
    },
    {
      "inputs": [],
      "name": "getSupports",
      "outputs": [
        {
          "components": [
            {
              "internalType": "address",
              "name": "supportAddress",
              "type": "address"
            },
            {
              "internalType": "string",
              "name": "supportText",
              "type": "string"
            },
            {
              "internalType": "uint8",
              "name": "ratio",
              "type": "uint8"
            },
            {
              "internalType": "uint256",
              "name": "amount",
              "type": "uint256"
            },
            {
              "internalType": "uint256",
              "name": "timestamp",
              "type": "uint256"
            }
          ],
          "internalType": "struct TicketContract.SupportItem[]",
          "name": "",
          "type": "tuple[]"
        }
      ],
      "stateMutability": "view",
      "type": "function"
    },
    {
      "inputs": [
        {
          "internalType": "uint8",
          "name": "_div",
          "type": "uint8"
        }
      ],
      "name": "setDiv",
      "outputs": [
        {
          "internalType": "uint8",
          "name": "",
          "type": "uint8"
        }
      ],
      "stateMutability": "nonpayable",
      "type": "function"
    },
    {
      "inputs": [
        {
          "internalType": "uint256",
          "name": "",
          "type": "uint256"
        }
      ],
      "name": "supportList",
      "outputs": [
        {
          "internalType": "address",
          "name": "supportAddress",
          "type": "address"
        },
        {
          "internalType": "string",
          "name": "supportText",
          "type": "string"
        },
        {
          "internalType": "uint8",
          "name": "ratio",
          "type": "uint8"
        },
        {
          "internalType": "uint256",
          "name": "amount",
          "type": "uint256"
        },
        {
          "internalType": "uint256",
          "name": "timestamp",
          "type": "uint256"
        }
      ],
      "stateMutability": "view",
      "type": "function"
    },
    {
      "inputs": [
        {
          "internalType": "string",
          "name": "ticket",
          "type": "string"
        }
      ],
      "name": "supportTicket",
      "outputs": [],
      "stateMutability": "payable",
      "type": "function"
    }
  ],
  "bytecode": "0x6080604052670de0b6b3a76400006001556064600260006101000a81548160ff021916908360ff16021790555034801561003857600080fd5b50336000806101000a81548173ffffffffffffffffffffffffffffffffffffffff021916908373ffffffffffffffffffffffffffffffffffffffff1602179055506111c9806100886000396000f3fe6080604052600436106100555760003560e01c806312065fe01461005a578063488f38db14610085578063555f0899146100b05780637b11909a146100f1578063a584c66b1461010d578063edc10df01461014a575b600080fd5b34801561006657600080fd5b5061006f610175565b60405161007c9190610754565b60405180910390f35b34801561009157600080fd5b5061009a61017d565b6040516100a7919061078b565b60405180910390f35b3480156100bc57600080fd5b506100d760048036038101906100d291906107e6565b610194565b6040516100e89594939291906108e4565b60405180910390f35b61010b60048036038101906101069190610a73565b61028f565b005b34801561011957600080fd5b50610134600480360381019061012f9190610ae8565b610536565b604051610141919061078b565b60405180910390f35b34801561015657600080fd5b5061015f6105c3565b60405161016c9190610cc4565b60405180910390f35b600047905090565b6000600260009054906101000a900460ff16905090565b600381815481106101a457600080fd5b90600052602060002090600502016000915090508060000160009054906101000a900473ffffffffffffffffffffffffffffffffffffffff16908060010180546101ed90610d15565b80601f016020809104026020016040519081016040528092919081815260200182805461021990610d15565b80156102665780601f1061023b57610100808354040283529160200191610266565b820191906000526020600020905b81548152906001019060200180831161024957829003601f168201915b5050505050908060020160009054906101000a900460ff16908060030154908060040154905085565b600260009054906101000a900460ff1660ff166001546102af9190610da4565b3410156102bb57600080fd5b60008054906101000a900473ffffffffffffffffffffffffffffffffffffffff1673ffffffffffffffffffffffffffffffffffffffff166108fc600a600260009054906101000a900460ff1660ff166001546103179190610da4565b6103219190610da4565b9081150290604051600060405180830381858888f1935050505015801561034c573d6000803e3d6000fd5b506000600a82434460405160200161036693929190610e32565b6040516020818303038152906040528051906020012060001c6103899190610e6b565b90506000479050600060648360ff16836103a39190610e9c565b6103ad9190610da4565b90507fd1c550a2c7fd35e20f83cece42a4ed660069338bcb73a42b319b3773e36e7d678383836040516103e293929190610ede565b60405180910390a160036040518060a001604052803373ffffffffffffffffffffffffffffffffffffffff1681526020018681526020018560ff16815260200183815260200142815250908060018154018082558091505060019003906000526020600020906005020160009091909190915060008201518160000160006101000a81548173ffffffffffffffffffffffffffffffffffffffff021916908373ffffffffffffffffffffffffffffffffffffffff16021790555060208201518160010190816104b191906110c1565b5060408201518160020160006101000a81548160ff021916908360ff160217905550606082015181600301556080820151816004015550503373ffffffffffffffffffffffffffffffffffffffff166108fc829081150290604051600060405180830381858888f1935050505015801561052f573d6000803e3d6000fd5b5050505050565b60008060009054906101000a900473ffffffffffffffffffffffffffffffffffffffff1673ffffffffffffffffffffffffffffffffffffffff163373ffffffffffffffffffffffffffffffffffffffff161461059157600080fd5b81600260006101000a81548160ff021916908360ff160217905550600260009054906101000a900460ff169050919050565b60606003805480602002602001604051908101604052809291908181526020016000905b8282101561073257838290600052602060002090600502016040518060a00160405290816000820160009054906101000a900473ffffffffffffffffffffffffffffffffffffffff1673ffffffffffffffffffffffffffffffffffffffff1673ffffffffffffffffffffffffffffffffffffffff16815260200160018201805461067090610d15565b80601f016020809104026020016040519081016040528092919081815260200182805461069c90610d15565b80156106e95780601f106106be576101008083540402835291602001916106e9565b820191906000526020600020905b8154815290600101906020018083116106cc57829003601f168201915b505050505081526020016002820160009054906101000a900460ff1660ff1660ff16815260200160038201548152602001600482015481525050815260200190600101906105e7565b50505050905090565b6000819050919050565b61074e8161073b565b82525050565b60006020820190506107696000830184610745565b92915050565b600060ff82169050919050565b6107858161076f565b82525050565b60006020820190506107a0600083018461077c565b92915050565b6000604051905090565b600080fd5b600080fd5b6107c38161073b565b81146107ce57600080fd5b50565b6000813590506107e0816107ba565b92915050565b6000602082840312156107fc576107fb6107b0565b5b600061080a848285016107d1565b91505092915050565b600073ffffffffffffffffffffffffffffffffffffffff82169050919050565b600061083e82610813565b9050919050565b61084e81610833565b82525050565b600081519050919050565b600082825260208201905092915050565b60005b8381101561088e578082015181840152602081019050610873565b60008484015250505050565b6000601f19601f8301169050919050565b60006108b682610854565b6108c0818561085f565b93506108d0818560208601610870565b6108d98161089a565b840191505092915050565b600060a0820190506108f96000830188610845565b818103602083015261090b81876108ab565b905061091a604083018661077c565b6109276060830185610745565b6109346080830184610745565b9695505050505050565b600080fd5b600080fd5b7f4e487b7100000000000000000000000000000000000000000000000000000000600052604160045260246000fd5b6109808261089a565b810181811067ffffffffffffffff8211171561099f5761099e610948565b5b80604052505050565b60006109b26107a6565b90506109be8282610977565b919050565b600067ffffffffffffffff8211156109de576109dd610948565b5b6109e78261089a565b9050602081019050919050565b82818337600083830152505050565b6000610a16610a11846109c3565b6109a8565b905082815260208101848484011115610a3257610a31610943565b5b610a3d8482856109f4565b509392505050565b600082601f830112610a5a57610a5961093e565b5b8135610a6a848260208601610a03565b91505092915050565b600060208284031215610a8957610a886107b0565b5b600082013567ffffffffffffffff811115610aa757610aa66107b5565b5b610ab384828501610a45565b91505092915050565b610ac58161076f565b8114610ad057600080fd5b50565b600081359050610ae281610abc565b92915050565b600060208284031215610afe57610afd6107b0565b5b6000610b0c84828501610ad3565b91505092915050565b600081519050919050565b600082825260208201905092915050565b6000819050602082019050919050565b610b4a81610833565b82525050565b600082825260208201905092915050565b6000610b6c82610854565b610b768185610b50565b9350610b86818560208601610870565b610b8f8161089a565b840191505092915050565b610ba38161076f565b82525050565b610bb28161073b565b82525050565b600060a083016000830151610bd06000860182610b41565b5060208301518482036020860152610be88282610b61565b9150506040830151610bfd6040860182610b9a565b506060830151610c106060860182610ba9565b506080830151610c236080860182610ba9565b508091505092915050565b6000610c3a8383610bb8565b905092915050565b6000602082019050919050565b6000610c5a82610b15565b610c648185610b20565b935083602082028501610c7685610b31565b8060005b85811015610cb25784840389528151610c938582610c2e565b9450610c9e83610c42565b925060208a01995050600181019050610c7a565b50829750879550505050505092915050565b60006020820190508181036000830152610cde8184610c4f565b905092915050565b7f4e487b7100000000000000000000000000000000000000000000000000000000600052602260045260246000fd5b60006002820490506001821680610d2d57607f821691505b602082108103610d4057610d3f610ce6565b5b50919050565b7f4e487b7100000000000000000000000000000000000000000000000000000000600052601260045260246000fd5b7f4e487b7100000000000000000000000000000000000000000000000000000000600052601160045260246000fd5b6000610daf8261073b565b9150610dba8361073b565b925082610dca57610dc9610d46565b5b828204905092915050565b600081905092915050565b6000610deb82610854565b610df58185610dd5565b9350610e05818560208601610870565b80840191505092915050565b6000819050919050565b610e2c610e278261073b565b610e11565b82525050565b6000610e3e8286610de0565b9150610e4a8285610e1b565b602082019150610e5a8284610e1b565b602082019150819050949350505050565b6000610e768261073b565b9150610e818361073b565b925082610e9157610e90610d46565b5b828206905092915050565b6000610ea78261073b565b9150610eb28361073b565b9250828202610ec08161073b565b91508282048414831517610ed757610ed6610d75565b5b5092915050565b6000606082019050610ef3600083018661077c565b610f006020830185610745565b610f0d6040830184610745565b949350505050565b60008190508160005260206000209050919050565b60006020601f8301049050919050565b600082821b905092915050565b600060088302610f777fffffffffffffffffffffffffffffffffffffffffffffffffffffffffffffffff82610f3a565b610f818683610f3a565b95508019841693508086168417925050509392505050565b6000819050919050565b6000610fbe610fb9610fb48461073b565b610f99565b61073b565b9050919050565b6000819050919050565b610fd883610fa3565b610fec610fe482610fc5565b848454610f47565b825550505050565b600090565b611001610ff4565b61100c818484610fcf565b505050565b5b8181101561103057611025600082610ff9565b600181019050611012565b5050565b601f8211156110755761104681610f15565b61104f84610f2a565b8101602085101561105e578190505b61107261106a85610f2a565b830182611011565b50505b505050565b600082821c905092915050565b60006110986000198460080261107a565b1980831691505092915050565b60006110b18383611087565b9150826002028217905092915050565b6110ca82610854565b67ffffffffffffffff8111156110e3576110e2610948565b5b6110ed8254610d15565b6110f8828285611034565b600060209050601f83116001811461112b5760008415611119578287015190505b61112385826110a5565b86555061118b565b601f19841661113986610f15565b60005b828110156111615784890151825560018201915060208501945060208101905061113c565b8683101561117e578489015161117a601f891682611087565b8355505b6001600288020188555050505b50505050505056fea26469706673582212203674b4c130794e67e462e5ed3974e54cf5d2910a59ff3cb36a180c029226bf1364736f6c63430008110033",
  "linkReferences": {},
  "deployedLinkReferences": {}
}